{
  "_format": "hh-sol-artifact-1",
  "contractName": "Concert1",
  "sourceName": "contracts/TicketMarket.sol",
  "abi": [
    {
      "inputs": [],
      "stateMutability": "nonpayable",
      "type": "constructor"
    },
    {
      "anonymous": false,
      "inputs": [
        {
          "indexed": true,
          "internalType": "address",
          "name": "owner",
          "type": "address"
        },
        {
          "indexed": true,
          "internalType": "address",
          "name": "approved",
          "type": "address"
        },
        {
          "indexed": true,
          "internalType": "uint256",
          "name": "tokenId",
          "type": "uint256"
        }
      ],
      "name": "Approval",
      "type": "event"
    },
    {
      "anonymous": false,
      "inputs": [
        {
          "indexed": true,
          "internalType": "address",
          "name": "owner",
          "type": "address"
        },
        {
          "indexed": true,
          "internalType": "address",
          "name": "operator",
          "type": "address"
        },
        {
          "indexed": false,
          "internalType": "bool",
          "name": "approved",
          "type": "bool"
        }
      ],
      "name": "ApprovalForAll",
      "type": "event"
    },
    {
      "anonymous": false,
      "inputs": [
        {
          "indexed": true,
          "internalType": "address",
          "name": "from",
          "type": "address"
        },
        {
          "indexed": true,
          "internalType": "address",
          "name": "to",
          "type": "address"
        },
        {
          "indexed": true,
          "internalType": "uint256",
          "name": "tokenId",
          "type": "uint256"
        }
      ],
      "name": "Transfer",
      "type": "event"
    },
    {
      "anonymous": false,
      "inputs": [
        {
          "indexed": true,
          "internalType": "uint256",
          "name": "tokenId",
          "type": "uint256"
        },
        {
          "indexed": false,
          "internalType": "address",
          "name": "original_owner",
          "type": "address"
        },
        {
          "indexed": false,
          "internalType": "uint256",
          "name": "perc_cut",
          "type": "uint256"
        },
        {
          "indexed": false,
          "internalType": "address",
          "name": "seller",
          "type": "address"
        },
        {
          "indexed": false,
          "internalType": "address",
          "name": "owner",
          "type": "address"
        },
        {
          "indexed": false,
          "internalType": "uint256",
          "name": "prev_price",
          "type": "uint256"
        },
        {
          "indexed": false,
          "internalType": "uint256",
          "name": "price",
          "type": "uint256"
        },
        {
          "indexed": false,
          "internalType": "bool",
          "name": "sold",
          "type": "bool"
        }
      ],
      "name": "ticketCreated",
      "type": "event"
    },
    {
      "inputs": [
        {
          "internalType": "address",
          "name": "to",
          "type": "address"
        },
        {
          "internalType": "uint256",
          "name": "tokenId",
          "type": "uint256"
        }
      ],
      "name": "approve",
      "outputs": [],
      "stateMutability": "nonpayable",
      "type": "function"
    },
    {
      "inputs": [
        {
          "internalType": "address",
          "name": "owner",
          "type": "address"
        }
      ],
      "name": "balanceOf",
      "outputs": [
        {
          "internalType": "uint256",
          "name": "",
          "type": "uint256"
        }
      ],
      "stateMutability": "view",
      "type": "function"
    },
    {
      "inputs": [
        {
          "internalType": "string",
          "name": "tokenURI",
          "type": "string"
        },
        {
          "internalType": "uint256",
          "name": "artist_cut",
          "type": "uint256"
        },
        {
          "internalType": "uint256",
          "name": "price",
          "type": "uint256"
        }
      ],
      "name": "createToken",
      "outputs": [
        {
          "internalType": "uint256",
          "name": "",
          "type": "uint256"
        }
      ],
      "stateMutability": "nonpayable",
      "type": "function"
    },
    {
      "inputs": [
        {
          "internalType": "uint256",
          "name": "tokenId",
          "type": "uint256"
        }
      ],
      "name": "getApproved",
      "outputs": [
        {
          "internalType": "address",
          "name": "",
          "type": "address"
        }
      ],
      "stateMutability": "view",
      "type": "function"
    },
    {
      "inputs": [],
      "name": "getAvailableTickets",
      "outputs": [
        {
          "components": [
            {
              "internalType": "uint256",
              "name": "tokenID",
              "type": "uint256"
            },
            {
              "internalType": "address payable",
              "name": "original_owner",
              "type": "address"
            },
            {
              "internalType": "uint256",
              "name": "perc_cut",
              "type": "uint256"
            },
            {
              "internalType": "address payable",
              "name": "seller",
              "type": "address"
            },
            {
              "internalType": "address payable",
              "name": "owner",
              "type": "address"
            },
            {
              "internalType": "uint256",
              "name": "prev_price",
              "type": "uint256"
            },
            {
              "internalType": "uint256",
              "name": "price",
              "type": "uint256"
            },
            {
              "internalType": "bool",
              "name": "sold",
              "type": "bool"
            }
          ],
          "internalType": "struct Concert1.ticketData[]",
          "name": "",
          "type": "tuple[]"
        }
      ],
      "stateMutability": "view",
      "type": "function"
    },
    {
      "inputs": [],
      "name": "getListedTickets",
      "outputs": [
        {
          "components": [
            {
              "internalType": "uint256",
              "name": "tokenID",
              "type": "uint256"
            },
            {
              "internalType": "address payable",
              "name": "original_owner",
              "type": "address"
            },
            {
              "internalType": "uint256",
              "name": "perc_cut",
              "type": "uint256"
            },
            {
              "internalType": "address payable",
              "name": "seller",
              "type": "address"
            },
            {
              "internalType": "address payable",
              "name": "owner",
              "type": "address"
            },
            {
              "internalType": "uint256",
              "name": "prev_price",
              "type": "uint256"
            },
            {
              "internalType": "uint256",
              "name": "price",
              "type": "uint256"
            },
            {
              "internalType": "bool",
              "name": "sold",
              "type": "bool"
            }
          ],
          "internalType": "struct Concert1.ticketData[]",
          "name": "",
          "type": "tuple[]"
        }
      ],
      "stateMutability": "view",
      "type": "function"
    },
    {
      "inputs": [],
      "name": "getMyTickets",
      "outputs": [
        {
          "components": [
            {
              "internalType": "uint256",
              "name": "tokenID",
              "type": "uint256"
            },
            {
              "internalType": "address payable",
              "name": "original_owner",
              "type": "address"
            },
            {
              "internalType": "uint256",
              "name": "perc_cut",
              "type": "uint256"
            },
            {
              "internalType": "address payable",
              "name": "seller",
              "type": "address"
            },
            {
              "internalType": "address payable",
              "name": "owner",
              "type": "address"
            },
            {
              "internalType": "uint256",
              "name": "prev_price",
              "type": "uint256"
            },
            {
              "internalType": "uint256",
              "name": "price",
              "type": "uint256"
            },
            {
              "internalType": "bool",
              "name": "sold",
              "type": "bool"
            }
          ],
          "internalType": "struct Concert1.ticketData[]",
          "name": "",
          "type": "tuple[]"
        }
      ],
      "stateMutability": "view",
      "type": "function"
    },
    {
      "inputs": [
        {
          "internalType": "address",
          "name": "owner",
          "type": "address"
        },
        {
          "internalType": "address",
          "name": "operator",
          "type": "address"
        }
      ],
      "name": "isApprovedForAll",
      "outputs": [
        {
          "internalType": "bool",
          "name": "",
          "type": "bool"
        }
      ],
      "stateMutability": "view",
      "type": "function"
    },
    {
      "inputs": [
        {
          "internalType": "uint256",
          "name": "tokenID",
          "type": "uint256"
        },
        {
          "internalType": "uint256",
          "name": "price",
          "type": "uint256"
        }
      ],
      "name": "listTicketForSale",
      "outputs": [],
      "stateMutability": "nonpayable",
      "type": "function"
    },
    {
      "inputs": [
        {
          "internalType": "uint256",
          "name": "tokenID",
          "type": "uint256"
        }
      ],
      "name": "makeSale",
      "outputs": [],
      "stateMutability": "payable",
      "type": "function"
    },
    {
      "inputs": [],
      "name": "name",
      "outputs": [
        {
          "internalType": "string",
          "name": "",
          "type": "string"
        }
      ],
      "stateMutability": "view",
      "type": "function"
    },
    {
      "inputs": [
        {
          "internalType": "uint256",
          "name": "tokenId",
          "type": "uint256"
        }
      ],
      "name": "ownerOf",
      "outputs": [
        {
          "internalType": "address",
          "name": "",
          "type": "address"
        }
      ],
      "stateMutability": "view",
      "type": "function"
    },
    {
      "inputs": [
        {
          "internalType": "address",
          "name": "from",
          "type": "address"
        },
        {
          "internalType": "address",
          "name": "to",
          "type": "address"
        },
        {
          "internalType": "uint256",
          "name": "tokenId",
          "type": "uint256"
        }
      ],
      "name": "safeTransferFrom",
      "outputs": [],
      "stateMutability": "nonpayable",
      "type": "function"
    },
    {
      "inputs": [
        {
          "internalType": "address",
          "name": "from",
          "type": "address"
        },
        {
          "internalType": "address",
          "name": "to",
          "type": "address"
        },
        {
          "internalType": "uint256",
          "name": "tokenId",
          "type": "uint256"
        },
        {
          "internalType": "bytes",
          "name": "_data",
          "type": "bytes"
        }
      ],
      "name": "safeTransferFrom",
      "outputs": [],
      "stateMutability": "nonpayable",
      "type": "function"
    },
    {
      "inputs": [
        {
          "internalType": "address",
          "name": "operator",
          "type": "address"
        },
        {
          "internalType": "bool",
          "name": "approved",
          "type": "bool"
        }
      ],
      "name": "setApprovalForAll",
      "outputs": [],
      "stateMutability": "nonpayable",
      "type": "function"
    },
    {
      "inputs": [
        {
          "internalType": "bytes4",
          "name": "interfaceId",
          "type": "bytes4"
        }
      ],
      "name": "supportsInterface",
      "outputs": [
        {
          "internalType": "bool",
          "name": "",
          "type": "bool"
        }
      ],
      "stateMutability": "view",
      "type": "function"
    },
    {
      "inputs": [],
      "name": "symbol",
      "outputs": [
        {
          "internalType": "string",
          "name": "",
          "type": "string"
        }
      ],
      "stateMutability": "view",
      "type": "function"
    },
    {
      "inputs": [
        {
          "internalType": "uint256",
          "name": "tokenId",
          "type": "uint256"
        }
      ],
      "name": "tokenURI",
      "outputs": [
        {
          "internalType": "string",
          "name": "",
          "type": "string"
        }
      ],
      "stateMutability": "view",
      "type": "function"
    },
    {
      "inputs": [
        {
          "internalType": "address",
          "name": "from",
          "type": "address"
        },
        {
          "internalType": "address",
          "name": "to",
          "type": "address"
        },
        {
          "internalType": "uint256",
          "name": "tokenId",
          "type": "uint256"
        }
      ],
      "name": "transferFrom",
      "outputs": [],
      "stateMutability": "nonpayable",
      "type": "function"
    }
  ],
  "bytecode": "0x6080604052661e32b478974000600a55612710600b553480156200002257600080fd5b506040518060400160405280601081526020017f4d657461766572736520546f6b656e73000000000000000000000000000000008152506040518060400160405280600481526020017f4d455454000000000000000000000000000000000000000000000000000000008152508160009080519060200190620000a79291906200010a565b508060019080519060200190620000c09291906200010a565b50505033600760006101000a81548173ffffffffffffffffffffffffffffffffffffffff021916908373ffffffffffffffffffffffffffffffffffffffff1602179055506200021f565b8280546200011890620001ba565b90600052602060002090601f0160209004810192826200013c576000855562000188565b82601f106200015757805160ff191683800117855562000188565b8280016001018555821562000188579182015b82811115620001875782518255916020019190600101906200016a565b5b5090506200019791906200019b565b5090565b5b80821115620001b65760008160009055506001016200019c565b5090565b60006002820490506001821680620001d357607f821691505b60208210811415620001ea57620001e9620001f0565b5b50919050565b7f4e487b7100000000000000000000000000000000000000000000000000000000600052602260045260246000fd5b614787806200022f6000396000f3fe6080604052600436106101145760003560e01c80636352211e116100a0578063bec2a7c511610064578063bec2a7c5146103a2578063c87b56dd146103df578063d524d32d1461041c578063e1d10d8514610445578063e985e9c51461047057610114565b80636352211e146102ab57806370a08231146102e857806395d89b4114610325578063a22cb46514610350578063b88d4fde1461037957610114565b806323b872dd116100e757806323b872dd146101e7578063364083f41461021057806342842e0e1461022c578063443c6942146102555780635a8acacc1461028057610114565b806301ffc9a71461011957806306fdde0314610156578063081812fc14610181578063095ea7b3146101be575b600080fd5b34801561012557600080fd5b50610140600480360381019061013b9190613091565b6104ad565b60405161014d91906137c0565b60405180910390f35b34801561016257600080fd5b5061016b61058f565b60405161017891906137db565b60405180910390f35b34801561018d57600080fd5b506101a860048036038101906101a3919061314a565b610621565b6040516101b591906136c8565b60405180910390f35b3480156101ca57600080fd5b506101e560048036038101906101e09190613055565b6106a6565b005b3480156101f357600080fd5b5061020e60048036038101906102099190612f4f565b6107be565b005b61022a6004803603810190610225919061314a565b61081e565b005b34801561023857600080fd5b50610253600480360381019061024e9190612f4f565b610b2d565b005b34801561026157600080fd5b5061026a610b4d565b604051610277919061379e565b60405180910390f35b34801561028c57600080fd5b50610295610eeb565b6040516102a2919061379e565b60405180910390f35b3480156102b757600080fd5b506102d260048036038101906102cd919061314a565b6111f1565b6040516102df91906136c8565b60405180910390f35b3480156102f457600080fd5b5061030f600480360381019061030a9190612eea565b6112a3565b60405161031c9190613a9d565b60405180910390f35b34801561033157600080fd5b5061033a61135b565b60405161034791906137db565b60405180910390f35b34801561035c57600080fd5b5061037760048036038101906103729190613019565b6113ed565b005b34801561038557600080fd5b506103a0600480360381019061039b9190612f9e565b611403565b005b3480156103ae57600080fd5b506103c960048036038101906103c491906130e3565b611465565b6040516103d69190613a9d565b60405180910390f35b3480156103eb57600080fd5b506104066004803603810190610401919061314a565b611501565b60405161041391906137db565b60405180910390f35b34801561042857600080fd5b50610443600480360381019061043e9190613173565b611653565b005b34801561045157600080fd5b5061045a611804565b604051610467919061379e565b60405180910390f35b34801561047c57600080fd5b5061049760048036038101906104929190612f13565b611ba2565b6040516104a491906137c0565b60405180910390f35b60007f80ac58cd000000000000000000000000000000000000000000000000000000007bffffffffffffffffffffffffffffffffffffffffffffffffffffffff1916827bffffffffffffffffffffffffffffffffffffffffffffffffffffffff1916148061057857507f5b5e139f000000000000000000000000000000000000000000000000000000007bffffffffffffffffffffffffffffffffffffffffffffffffffffffff1916827bffffffffffffffffffffffffffffffffffffffffffffffffffffffff1916145b80610588575061058782611c36565b5b9050919050565b60606000805461059e90613fa7565b80601f01602080910402602001604051908101604052809291908181526020018280546105ca90613fa7565b80156106175780601f106105ec57610100808354040283529160200191610617565b820191906000526020600020905b8154815290600101906020018083116105fa57829003601f168201915b5050505050905090565b600061062c82611ca0565b61066b576040517f08c379a0000000000000000000000000000000000000000000000000000000008152600401610662906139bd565b60405180910390fd5b6004600083815260200190815260200160002060009054906101000a900473ffffffffffffffffffffffffffffffffffffffff169050919050565b60006106b1826111f1565b90508073ffffffffffffffffffffffffffffffffffffffff168373ffffffffffffffffffffffffffffffffffffffff161415610722576040517f08c379a000000000000000000000000000000000000000000000000000000000815260040161071990613a3d565b60405180910390fd5b8073ffffffffffffffffffffffffffffffffffffffff16610741611d0c565b73ffffffffffffffffffffffffffffffffffffffff161480610770575061076f8161076a611d0c565b611ba2565b5b6107af576040517f08c379a00000000000000000000000000000000000000000000000000000000081526004016107a6906138fd565b60405180910390fd5b6107b98383611d14565b505050565b6107cf6107c9611d0c565b82611dcd565b61080e576040517f08c379a000000000000000000000000000000000000000000000000000000000815260040161080590613a5d565b60405180910390fd5b610819838383611eab565b505050565b6000600c60008381526020019081526020016000206006015490506000600c600084815260200190815260200160002060030160009054906101000a900473ffffffffffffffffffffffffffffffffffffffff1690508134146108b6576040517f08c379a00000000000000000000000000000000000000000000000000000000081526004016108ad90613a7d565b60405180910390fd5b6001600c600085815260200190815260200160002060070160006101000a81548160ff0219169083151502179055506000600c600085815260200190815260200160002060030160006101000a81548173ffffffffffffffffffffffffffffffffffffffff021916908373ffffffffffffffffffffffffffffffffffffffff16021790555033600c600085815260200190815260200160002060040160006101000a81548173ffffffffffffffffffffffffffffffffffffffff021916908373ffffffffffffffffffffffffffffffffffffffff16021790555061099a6009612112565b6109a5303385611eab565b6000600c600085815260200190815260200160002060050154836109c99190613e0d565b90506000811315610adf576000610a02600c600087815260200190815260200160002060020154836109fb9190613db3565b606461216e565b905060008185610a129190613ea1565b9050600c600087815260200190815260200160002060010160009054906101000a900473ffffffffffffffffffffffffffffffffffffffff1673ffffffffffffffffffffffffffffffffffffffff166108fc839081150290604051600060405180830381858888f19350505050158015610a90573d6000803e3d6000fd5b508373ffffffffffffffffffffffffffffffffffffffff166108fc829081150290604051600060405180830381858888f19350505050158015610ad7573d6000803e3d6000fd5b505050610b27565b8173ffffffffffffffffffffffffffffffffffffffff166108fc849081150290604051600060405180830381858888f19350505050158015610b25573d6000803e3d6000fd5b505b50505050565b610b4883838360405180602001604052806000815250611403565b505050565b60606000610b5b60086121d1565b90506000805b82811015610c02573373ffffffffffffffffffffffffffffffffffffffff16600c6000600184610b919190613bbb565b815260200190815260200160002060030160009054906101000a900473ffffffffffffffffffffffffffffffffffffffff1673ffffffffffffffffffffffffffffffffffffffff161415610bef57600182610bec9190613bbb565b91505b8080610bfa9061400a565b915050610b61565b5060008167ffffffffffffffff811115610c45577f4e487b7100000000000000000000000000000000000000000000000000000000600052604160045260246000fd5b604051908082528060200260200182016040528015610c7e57816020015b610c6b612c85565b815260200190600190039081610c635790505b5090506000805b84811015610ee0573373ffffffffffffffffffffffffffffffffffffffff16600c6000600184610cb59190613bbb565b815260200190815260200160002060030160009054906101000a900473ffffffffffffffffffffffffffffffffffffffff1673ffffffffffffffffffffffffffffffffffffffff161415610ecd576000600c6000600184610d169190613bbb565b815260200190815260200160002090508060405180610100016040529081600082015481526020016001820160009054906101000a900473ffffffffffffffffffffffffffffffffffffffff1673ffffffffffffffffffffffffffffffffffffffff1673ffffffffffffffffffffffffffffffffffffffff168152602001600282015481526020016003820160009054906101000a900473ffffffffffffffffffffffffffffffffffffffff1673ffffffffffffffffffffffffffffffffffffffff1673ffffffffffffffffffffffffffffffffffffffff1681526020016004820160009054906101000a900473ffffffffffffffffffffffffffffffffffffffff1673ffffffffffffffffffffffffffffffffffffffff1673ffffffffffffffffffffffffffffffffffffffff16815260200160058201548152602001600682015481526020016007820160009054906101000a900460ff161515151581525050848481518110610eb1577f4e487b7100000000000000000000000000000000000000000000000000000000600052603260045260246000fd5b6020026020010181905250600183610ec99190613bbb565b9250505b8080610ed89061400a565b915050610c85565b508194505050505090565b60606000610ef960086121d1565b90506000610f0760096121d1565b905060008167ffffffffffffffff811115610f4b577f4e487b7100000000000000000000000000000000000000000000000000000000600052604160045260246000fd5b604051908082528060200260200182016040528015610f8457816020015b610f71612c85565b815260200190600190039081610f695790505b5090506000805b848110156111e6573073ffffffffffffffffffffffffffffffffffffffff16600c6000600184610fbb9190613bbb565b815260200190815260200160002060040160009054906101000a900473ffffffffffffffffffffffffffffffffffffffff1673ffffffffffffffffffffffffffffffffffffffff1614156111d3576000600c600060018461101c9190613bbb565b815260200190815260200160002090508060405180610100016040529081600082015481526020016001820160009054906101000a900473ffffffffffffffffffffffffffffffffffffffff1673ffffffffffffffffffffffffffffffffffffffff1673ffffffffffffffffffffffffffffffffffffffff168152602001600282015481526020016003820160009054906101000a900473ffffffffffffffffffffffffffffffffffffffff1673ffffffffffffffffffffffffffffffffffffffff1673ffffffffffffffffffffffffffffffffffffffff1681526020016004820160009054906101000a900473ffffffffffffffffffffffffffffffffffffffff1673ffffffffffffffffffffffffffffffffffffffff1673ffffffffffffffffffffffffffffffffffffffff16815260200160058201548152602001600682015481526020016007820160009054906101000a900460ff1615151515815250508484815181106111b7577f4e487b7100000000000000000000000000000000000000000000000000000000600052603260045260246000fd5b60200260200101819052506001836111cf9190613bbb565b9250505b80806111de9061400a565b915050610f8b565b508194505050505090565b6000806002600084815260200190815260200160002060009054906101000a900473ffffffffffffffffffffffffffffffffffffffff169050600073ffffffffffffffffffffffffffffffffffffffff168173ffffffffffffffffffffffffffffffffffffffff16141561129a576040517f08c379a00000000000000000000000000000000000000000000000000000000081526004016112919061393d565b60405180910390fd5b80915050919050565b60008073ffffffffffffffffffffffffffffffffffffffff168273ffffffffffffffffffffffffffffffffffffffff161415611314576040517f08c379a000000000000000000000000000000000000000000000000000000000815260040161130b9061391d565b60405180910390fd5b600360008373ffffffffffffffffffffffffffffffffffffffff1673ffffffffffffffffffffffffffffffffffffffff168152602001908152602001600020549050919050565b60606001805461136a90613fa7565b80601f016020809104026020016040519081016040528092919081815260200182805461139690613fa7565b80156113e35780601f106113b8576101008083540402835291602001916113e3565b820191906000526020600020905b8154815290600101906020018083116113c657829003601f168201915b5050505050905090565b6113ff6113f8611d0c565b83836121df565b5050565b61141461140e611d0c565b83611dcd565b611453576040517f08c379a000000000000000000000000000000000000000000000000000000000815260040161144a90613a5d565b60405180910390fd5b61145f8484848461234c565b50505050565b6000600b5461147460086121d1565b11156114b5576040517f08c379a00000000000000000000000000000000000000000000000000000000081526004016114ac906139fd565b60405180910390fd5b6114bf60086123a8565b60006114cb60086121d1565b90506114d733826123be565b6114e18186612598565b6114ec81848661260c565b6114f660096123a8565b809150509392505050565b606061150c82611ca0565b61154b576040517f08c379a00000000000000000000000000000000000000000000000000000000081526004016115429061399d565b60405180910390fd5b600060066000848152602001908152602001600020805461156b90613fa7565b80601f016020809104026020016040519081016040528092919081815260200182805461159790613fa7565b80156115e45780601f106115b9576101008083540402835291602001916115e4565b820191906000526020600020905b8154815290600101906020018083116115c757829003601f168201915b5050505050905060006115f5612856565b905060008151141561160b57819250505061164e565b6000825111156116405780826040516020016116289291906136a4565b6040516020818303038152906040529250505061164e565b6116498461286d565b925050505b919050565b3373ffffffffffffffffffffffffffffffffffffffff16600c600084815260200190815260200160002060040160009054906101000a900473ffffffffffffffffffffffffffffffffffffffff1673ffffffffffffffffffffffffffffffffffffffff16146116f7576040517f08c379a00000000000000000000000000000000000000000000000000000000081526004016116ee906139dd565b60405180910390fd5b6000600c600084815260200190815260200160002060070160006101000a81548160ff02191690831515021790555080600c60008481526020019081526020016000206006018190555030600c600084815260200190815260200160002060040160006101000a81548173ffffffffffffffffffffffffffffffffffffffff021916908373ffffffffffffffffffffffffffffffffffffffff16021790555033600c600084815260200190815260200160002060030160006101000a81548173ffffffffffffffffffffffffffffffffffffffff021916908373ffffffffffffffffffffffffffffffffffffffff1602179055506117f560096123a8565b611800333084611eab565b5050565b6060600061181260086121d1565b90506000805b828110156118b9573373ffffffffffffffffffffffffffffffffffffffff16600c60006001846118489190613bbb565b815260200190815260200160002060040160009054906101000a900473ffffffffffffffffffffffffffffffffffffffff1673ffffffffffffffffffffffffffffffffffffffff1614156118a6576001826118a39190613bbb565b91505b80806118b19061400a565b915050611818565b5060008167ffffffffffffffff8111156118fc577f4e487b7100000000000000000000000000000000000000000000000000000000600052604160045260246000fd5b60405190808252806020026020018201604052801561193557816020015b611922612c85565b81526020019060019003908161191a5790505b5090506000805b84811015611b97573373ffffffffffffffffffffffffffffffffffffffff16600c600060018461196c9190613bbb565b815260200190815260200160002060040160009054906101000a900473ffffffffffffffffffffffffffffffffffffffff1673ffffffffffffffffffffffffffffffffffffffff161415611b84576000600c60006001846119cd9190613bbb565b815260200190815260200160002090508060405180610100016040529081600082015481526020016001820160009054906101000a900473ffffffffffffffffffffffffffffffffffffffff1673ffffffffffffffffffffffffffffffffffffffff1673ffffffffffffffffffffffffffffffffffffffff168152602001600282015481526020016003820160009054906101000a900473ffffffffffffffffffffffffffffffffffffffff1673ffffffffffffffffffffffffffffffffffffffff1673ffffffffffffffffffffffffffffffffffffffff1681526020016004820160009054906101000a900473ffffffffffffffffffffffffffffffffffffffff1673ffffffffffffffffffffffffffffffffffffffff1673ffffffffffffffffffffffffffffffffffffffff16815260200160058201548152602001600682015481526020016007820160009054906101000a900460ff161515151581525050848481518110611b68577f4e487b7100000000000000000000000000000000000000000000000000000000600052603260045260246000fd5b6020026020010181905250600183611b809190613bbb565b9250505b8080611b8f9061400a565b91505061193c565b508194505050505090565b6000600560008473ffffffffffffffffffffffffffffffffffffffff1673ffffffffffffffffffffffffffffffffffffffff16815260200190815260200160002060008373ffffffffffffffffffffffffffffffffffffffff1673ffffffffffffffffffffffffffffffffffffffff16815260200190815260200160002060009054906101000a900460ff16905092915050565b60007f01ffc9a7000000000000000000000000000000000000000000000000000000007bffffffffffffffffffffffffffffffffffffffffffffffffffffffff1916827bffffffffffffffffffffffffffffffffffffffffffffffffffffffff1916149050919050565b60008073ffffffffffffffffffffffffffffffffffffffff166002600084815260200190815260200160002060009054906101000a900473ffffffffffffffffffffffffffffffffffffffff1673ffffffffffffffffffffffffffffffffffffffff1614159050919050565b600033905090565b816004600083815260200190815260200160002060006101000a81548173ffffffffffffffffffffffffffffffffffffffff021916908373ffffffffffffffffffffffffffffffffffffffff160217905550808273ffffffffffffffffffffffffffffffffffffffff16611d87836111f1565b73ffffffffffffffffffffffffffffffffffffffff167f8c5be1e5ebec7d5bd14f71427d1e84f3dd0314c0f7b2291e5b200ac8c7c3b92560405160405180910390a45050565b6000611dd882611ca0565b611e17576040517f08c379a0000000000000000000000000000000000000000000000000000000008152600401611e0e906138dd565b60405180910390fd5b6000611e22836111f1565b90508073ffffffffffffffffffffffffffffffffffffffff168473ffffffffffffffffffffffffffffffffffffffff161480611e9157508373ffffffffffffffffffffffffffffffffffffffff16611e7984610621565b73ffffffffffffffffffffffffffffffffffffffff16145b80611ea25750611ea18185611ba2565b5b91505092915050565b8273ffffffffffffffffffffffffffffffffffffffff16611ecb826111f1565b73ffffffffffffffffffffffffffffffffffffffff1614611f21576040517f08c379a0000000000000000000000000000000000000000000000000000000008152600401611f189061385d565b60405180910390fd5b600073ffffffffffffffffffffffffffffffffffffffff168273ffffffffffffffffffffffffffffffffffffffff161415611f91576040517f08c379a0000000000000000000000000000000000000000000000000000000008152600401611f889061389d565b60405180910390fd5b611f9c838383612914565b611fa7600082611d14565b6001600360008573ffffffffffffffffffffffffffffffffffffffff1673ffffffffffffffffffffffffffffffffffffffff1681526020019081526020016000206000828254611ff79190613ea1565b925050819055506001600360008473ffffffffffffffffffffffffffffffffffffffff1673ffffffffffffffffffffffffffffffffffffffff168152602001908152602001600020600082825461204e9190613bbb565b92505081905550816002600083815260200190815260200160002060006101000a81548173ffffffffffffffffffffffffffffffffffffffff021916908373ffffffffffffffffffffffffffffffffffffffff160217905550808273ffffffffffffffffffffffffffffffffffffffff168473ffffffffffffffffffffffffffffffffffffffff167fddf252ad1be2c89b69c2b068fc378daa952ba7f163c4a11628f55a4df523b3ef60405160405180910390a461210d838383612919565b505050565b6000816000015490506000811161215e576040517f08c379a00000000000000000000000000000000000000000000000000000000081526004016121559061381d565b60405180910390fd5b6001810382600001819055505050565b6000806005905060006001826121849190613bbb565b600a6121909190613c95565b8561219b9190613db3565b90506000600a600586846121af9190613c11565b6121b99190613bbb565b6121c39190613c11565b905080935050505092915050565b600081600001549050919050565b8173ffffffffffffffffffffffffffffffffffffffff168373ffffffffffffffffffffffffffffffffffffffff16141561224e576040517f08c379a0000000000000000000000000000000000000000000000000000000008152600401612245906138bd565b60405180910390fd5b80600560008573ffffffffffffffffffffffffffffffffffffffff1673ffffffffffffffffffffffffffffffffffffffff16815260200190815260200160002060008473ffffffffffffffffffffffffffffffffffffffff1673ffffffffffffffffffffffffffffffffffffffff16815260200190815260200160002060006101000a81548160ff0219169083151502179055508173ffffffffffffffffffffffffffffffffffffffff168373ffffffffffffffffffffffffffffffffffffffff167f17307eab39ab6107e8899845ad3d59bd9653f200f220920489ca2b5937696c318360405161233f91906137c0565b60405180910390a3505050565b612357848484611eab565b6123638484848461291e565b6123a2576040517f08c379a00000000000000000000000000000000000000000000000000000000081526004016123999061383d565b60405180910390fd5b50505050565b6001816000016000828254019250508190555050565b600073ffffffffffffffffffffffffffffffffffffffff168273ffffffffffffffffffffffffffffffffffffffff16141561242e576040517f08c379a00000000000000000000000000000000000000000000000000000000081526004016124259061397d565b60405180910390fd5b61243781611ca0565b15612477576040517f08c379a000000000000000000000000000000000000000000000000000000000815260040161246e9061387d565b60405180910390fd5b61248360008383612914565b6001600360008473ffffffffffffffffffffffffffffffffffffffff1673ffffffffffffffffffffffffffffffffffffffff16815260200190815260200160002060008282546124d39190613bbb565b92505081905550816002600083815260200190815260200160002060006101000a81548173ffffffffffffffffffffffffffffffffffffffff021916908373ffffffffffffffffffffffffffffffffffffffff160217905550808273ffffffffffffffffffffffffffffffffffffffff16600073ffffffffffffffffffffffffffffffffffffffff167fddf252ad1be2c89b69c2b068fc378daa952ba7f163c4a11628f55a4df523b3ef60405160405180910390a461259460008383612919565b5050565b6125a182611ca0565b6125e0576040517f08c379a00000000000000000000000000000000000000000000000000000000081526004016125d79061395d565b60405180910390fd5b80600660008481526020019081526020016000209080519060200190612607929190612d0e565b505050565b6000821161264f576040517f08c379a0000000000000000000000000000000000000000000000000000000008152600401612646906137fd565b60405180910390fd5b6040518061010001604052808481526020013373ffffffffffffffffffffffffffffffffffffffff1681526020018281526020013373ffffffffffffffffffffffffffffffffffffffff1681526020013073ffffffffffffffffffffffffffffffffffffffff16815260200183815260200183815260200160001515815250600c60008581526020019081526020016000206000820151816000015560208201518160010160006101000a81548173ffffffffffffffffffffffffffffffffffffffff021916908373ffffffffffffffffffffffffffffffffffffffff1602179055506040820151816002015560608201518160030160006101000a81548173ffffffffffffffffffffffffffffffffffffffff021916908373ffffffffffffffffffffffffffffffffffffffff16021790555060808201518160040160006101000a81548173ffffffffffffffffffffffffffffffffffffffff021916908373ffffffffffffffffffffffffffffffffffffffff16021790555060a0820151816005015560c0820151816006015560e08201518160070160006101000a81548160ff02191690831515021790555090505061280c333085611eab565b827f9bb2edb04dea5922baa2f5a427b910a5c471c16cede6b8118bd4170d0b3071e63383333387886000604051612849979695949392919061372f565b60405180910390a2505050565b606060405180602001604052806000815250905090565b606061287882611ca0565b6128b7576040517f08c379a00000000000000000000000000000000000000000000000000000000081526004016128ae90613a1d565b60405180910390fd5b60006128c1612856565b905060008151116128e1576040518060200160405280600081525061290c565b806128eb84612ab5565b6040516020016128fc9291906136a4565b6040516020818303038152906040525b915050919050565b505050565b505050565b600061293f8473ffffffffffffffffffffffffffffffffffffffff16612c62565b15612aa8578373ffffffffffffffffffffffffffffffffffffffff1663150b7a02612968611d0c565b8786866040518563ffffffff1660e01b815260040161298a94939291906136e3565b602060405180830381600087803b1580156129a457600080fd5b505af19250505080156129d557506040513d601f19601f820116820180604052508101906129d291906130ba565b60015b612a58573d8060008114612a05576040519150601f19603f3d011682016040523d82523d6000602084013e612a0a565b606091505b50600081511415612a50576040517f08c379a0000000000000000000000000000000000000000000000000000000008152600401612a479061383d565b60405180910390fd5b805181602001fd5b63150b7a0260e01b7bffffffffffffffffffffffffffffffffffffffffffffffffffffffff1916817bffffffffffffffffffffffffffffffffffffffffffffffffffffffff191614915050612aad565b600190505b949350505050565b60606000821415612afd576040518060400160405280600181526020017f30000000000000000000000000000000000000000000000000000000000000008152509050612c5d565b600082905060005b60008214612b2f578080612b189061400a565b915050600a82612b289190613c11565b9150612b05565b60008167ffffffffffffffff811115612b71577f4e487b7100000000000000000000000000000000000000000000000000000000600052604160045260246000fd5b6040519080825280601f01601f191660200182016040528015612ba35781602001600182028036833780820191505090505b5090505b60008514612c5657600182612bbc9190613ea1565b9150600a85612bcb9190614053565b6030612bd79190613bbb565b60f81b818381518110612c13577f4e487b7100000000000000000000000000000000000000000000000000000000600052603260045260246000fd5b60200101907effffffffffffffffffffffffffffffffffffffffffffffffffffffffffffff1916908160001a905350600a85612c4f9190613c11565b9450612ba7565b8093505050505b919050565b6000808273ffffffffffffffffffffffffffffffffffffffff163b119050919050565b60405180610100016040528060008152602001600073ffffffffffffffffffffffffffffffffffffffff16815260200160008152602001600073ffffffffffffffffffffffffffffffffffffffff168152602001600073ffffffffffffffffffffffffffffffffffffffff16815260200160008152602001600081526020016000151581525090565b828054612d1a90613fa7565b90600052602060002090601f016020900481019282612d3c5760008555612d83565b82601f10612d5557805160ff1916838001178555612d83565b82800160010185558215612d83579182015b82811115612d82578251825591602001919060010190612d67565b5b509050612d909190612d94565b5090565b5b80821115612dad576000816000905550600101612d95565b5090565b6000612dc4612dbf84613add565b613ab8565b905082815260208101848484011115612ddc57600080fd5b612de7848285613f65565b509392505050565b6000612e02612dfd84613b0e565b613ab8565b905082815260208101848484011115612e1a57600080fd5b612e25848285613f65565b509392505050565b600081359050612e3c816146f5565b92915050565b600081359050612e518161470c565b92915050565b600081359050612e6681614723565b92915050565b600081519050612e7b81614723565b92915050565b600082601f830112612e9257600080fd5b8135612ea2848260208601612db1565b91505092915050565b600082601f830112612ebc57600080fd5b8135612ecc848260208601612def565b91505092915050565b600081359050612ee48161473a565b92915050565b600060208284031215612efc57600080fd5b6000612f0a84828501612e2d565b91505092915050565b60008060408385031215612f2657600080fd5b6000612f3485828601612e2d565b9250506020612f4585828601612e2d565b9150509250929050565b600080600060608486031215612f6457600080fd5b6000612f7286828701612e2d565b9350506020612f8386828701612e2d565b9250506040612f9486828701612ed5565b9150509250925092565b60008060008060808587031215612fb457600080fd5b6000612fc287828801612e2d565b9450506020612fd387828801612e2d565b9350506040612fe487828801612ed5565b925050606085013567ffffffffffffffff81111561300157600080fd5b61300d87828801612e81565b91505092959194509250565b6000806040838503121561302c57600080fd5b600061303a85828601612e2d565b925050602061304b85828601612e42565b9150509250929050565b6000806040838503121561306857600080fd5b600061307685828601612e2d565b925050602061308785828601612ed5565b9150509250929050565b6000602082840312156130a357600080fd5b60006130b184828501612e57565b91505092915050565b6000602082840312156130cc57600080fd5b60006130da84828501612e6c565b91505092915050565b6000806000606084860312156130f857600080fd5b600084013567ffffffffffffffff81111561311257600080fd5b61311e86828701612eab565b935050602061312f86828701612ed5565b925050604061314086828701612ed5565b9150509250925092565b60006020828403121561315c57600080fd5b600061316a84828501612ed5565b91505092915050565b6000806040838503121561318657600080fd5b600061319485828601612ed5565b92505060206131a585828601612ed5565b9150509250929050565b60006131bb83836135e4565b6101008301905092915050565b6131d181613ee7565b82525050565b6131e081613ed5565b82525050565b60006131f182613b4f565b6131fb8185613b7d565b935061320683613b3f565b8060005b8381101561323757815161321e88826131af565b975061322983613b70565b92505060018101905061320a565b5085935050505092915050565b61324d81613ef9565b82525050565b61325c81613ef9565b82525050565b600061326d82613b5a565b6132778185613b8e565b9350613287818560208601613f74565b61329081614140565b840191505092915050565b60006132a682613b65565b6132b08185613b9f565b93506132c0818560208601613f74565b6132c981614140565b840191505092915050565b60006132df82613b65565b6132e98185613bb0565b93506132f9818560208601613f74565b80840191505092915050565b6000613312601b83613b9f565b915061331d8261415e565b602082019050919050565b6000613335601b83613b9f565b915061334082614187565b602082019050919050565b6000613358603283613b9f565b9150613363826141b0565b604082019050919050565b600061337b602583613b9f565b9150613386826141ff565b604082019050919050565b600061339e601c83613b9f565b91506133a98261424e565b602082019050919050565b60006133c1602483613b9f565b91506133cc82614277565b604082019050919050565b60006133e4601983613b9f565b91506133ef826142c6565b602082019050919050565b6000613407602c83613b9f565b9150613412826142ef565b604082019050919050565b600061342a603883613b9f565b91506134358261433e565b604082019050919050565b600061344d602a83613b9f565b91506134588261438d565b604082019050919050565b6000613470602983613b9f565b915061347b826143dc565b604082019050919050565b6000613493602e83613b9f565b915061349e8261442b565b604082019050919050565b60006134b6602083613b9f565b91506134c18261447a565b602082019050919050565b60006134d9603183613b9f565b91506134e4826144a3565b604082019050919050565b60006134fc602c83613b9f565b9150613507826144f2565b604082019050919050565b600061351f602783613b9f565b915061352a82614541565b604082019050919050565b6000613542600c83613b9f565b915061354d82614590565b602082019050919050565b6000613565602f83613b9f565b9150613570826145b9565b604082019050919050565b6000613588602183613b9f565b915061359382614608565b604082019050919050565b60006135ab603183613b9f565b91506135b682614657565b604082019050919050565b60006135ce602183613b9f565b91506135d9826146a6565b604082019050919050565b610100820160008201516135fb6000850182613686565b50602082015161360e60208501826131c8565b5060408201516136216040850182613686565b50606082015161363460608501826131c8565b50608082015161364760808501826131c8565b5060a082015161365a60a0850182613686565b5060c082015161366d60c0850182613686565b5060e082015161368060e0850182613244565b50505050565b61368f81613f5b565b82525050565b61369e81613f5b565b82525050565b60006136b082856132d4565b91506136bc82846132d4565b91508190509392505050565b60006020820190506136dd60008301846131d7565b92915050565b60006080820190506136f860008301876131d7565b61370560208301866131d7565b6137126040830185613695565b81810360608301526137248184613262565b905095945050505050565b600060e082019050613744600083018a6131d7565b6137516020830189613695565b61375e60408301886131d7565b61376b60608301876131d7565b6137786080830186613695565b61378560a0830185613695565b61379260c0830184613253565b98975050505050505050565b600060208201905081810360008301526137b881846131e6565b905092915050565b60006020820190506137d56000830184613253565b92915050565b600060208201905081810360008301526137f5818461329b565b905092915050565b6000602082019050818103600083015261381681613305565b9050919050565b6000602082019050818103600083015261383681613328565b9050919050565b600060208201905081810360008301526138568161334b565b9050919050565b600060208201905081810360008301526138768161336e565b9050919050565b6000602082019050818103600083015261389681613391565b9050919050565b600060208201905081810360008301526138b6816133b4565b9050919050565b600060208201905081810360008301526138d6816133d7565b9050919050565b600060208201905081810360008301526138f6816133fa565b9050919050565b600060208201905081810360008301526139168161341d565b9050919050565b6000602082019050818103600083015261393681613440565b9050919050565b6000602082019050818103600083015261395681613463565b9050919050565b6000602082019050818103600083015261397681613486565b9050919050565b60006020820190508181036000830152613996816134a9565b9050919050565b600060208201905081810360008301526139b6816134cc565b9050919050565b600060208201905081810360008301526139d6816134ef565b9050919050565b600060208201905081810360008301526139f681613512565b9050919050565b60006020820190508181036000830152613a1681613535565b9050919050565b60006020820190508181036000830152613a3681613558565b9050919050565b60006020820190508181036000830152613a568161357b565b9050919050565b60006020820190508181036000830152613a768161359e565b9050919050565b60006020820190508181036000830152613a96816135c1565b9050919050565b6000602082019050613ab26000830184613695565b92915050565b6000613ac2613ad3565b9050613ace8282613fd9565b919050565b6000604051905090565b600067ffffffffffffffff821115613af857613af7614111565b5b613b0182614140565b9050602081019050919050565b600067ffffffffffffffff821115613b2957613b28614111565b5b613b3282614140565b9050602081019050919050565b6000819050602082019050919050565b600081519050919050565b600081519050919050565b600081519050919050565b6000602082019050919050565b600082825260208201905092915050565b600082825260208201905092915050565b600082825260208201905092915050565b600081905092915050565b6000613bc682613f5b565b9150613bd183613f5b565b9250827fffffffffffffffffffffffffffffffffffffffffffffffffffffffffffffffff03821115613c0657613c05614084565b5b828201905092915050565b6000613c1c82613f5b565b9150613c2783613f5b565b925082613c3757613c366140b3565b5b828204905092915050565b6000808291508390505b6001851115613c8c57808604811115613c6857613c67614084565b5b6001851615613c775780820291505b8081029050613c8585614151565b9450613c4c565b94509492505050565b6000613ca082613f5b565b9150613cab83613f5b565b9250613cd87fffffffffffffffffffffffffffffffffffffffffffffffffffffffffffffffff8484613ce0565b905092915050565b600082613cf05760019050613dac565b81613cfe5760009050613dac565b8160018114613d145760028114613d1e57613d4d565b6001915050613dac565b60ff841115613d3057613d2f614084565b5b8360020a915084821115613d4757613d46614084565b5b50613dac565b5060208310610133831016604e8410600b8410161715613d825782820a905083811115613d7d57613d7c614084565b5b613dac565b613d8f8484846001613c42565b92509050818404811115613da657613da5614084565b5b81810290505b9392505050565b6000613dbe82613f5b565b9150613dc983613f5b565b9250817fffffffffffffffffffffffffffffffffffffffffffffffffffffffffffffffff0483118215151615613e0257613e01614084565b5b828202905092915050565b6000613e1882613f31565b9150613e2383613f31565b9250827f800000000000000000000000000000000000000000000000000000000000000001821260008412151615613e5e57613e5d614084565b5b827f7fffffffffffffffffffffffffffffffffffffffffffffffffffffffffffffff018213600084121615613e9657613e95614084565b5b828203905092915050565b6000613eac82613f5b565b9150613eb783613f5b565b925082821015613eca57613ec9614084565b5b828203905092915050565b6000613ee082613f3b565b9050919050565b6000613ef282613f3b565b9050919050565b60008115159050919050565b60007fffffffff0000000000000000000000000000000000000000000000000000000082169050919050565b6000819050919050565b600073ffffffffffffffffffffffffffffffffffffffff82169050919050565b6000819050919050565b82818337600083830152505050565b60005b83811015613f92578082015181840152602081019050613f77565b83811115613fa1576000848401525b50505050565b60006002820490506001821680613fbf57607f821691505b60208210811415613fd357613fd26140e2565b5b50919050565b613fe282614140565b810181811067ffffffffffffffff8211171561400157614000614111565b5b80604052505050565b600061401582613f5b565b91507fffffffffffffffffffffffffffffffffffffffffffffffffffffffffffffffff82141561404857614047614084565b5b600182019050919050565b600061405e82613f5b565b915061406983613f5b565b925082614079576140786140b3565b5b828206905092915050565b7f4e487b7100000000000000000000000000000000000000000000000000000000600052601160045260246000fd5b7f4e487b7100000000000000000000000000000000000000000000000000000000600052601260045260246000fd5b7f4e487b7100000000000000000000000000000000000000000000000000000000600052602260045260246000fd5b7f4e487b7100000000000000000000000000000000000000000000000000000000600052604160045260246000fd5b6000601f19601f8301169050919050565b60008160011c9050919050565b7f5072696365206d7573742062652061746c656173742031207765690000000000600082015250565b7f436f756e7465723a2064656372656d656e74206f766572666c6f770000000000600082015250565b7f4552433732313a207472616e7366657220746f206e6f6e20455243373231526560008201527f63656976657220696d706c656d656e7465720000000000000000000000000000602082015250565b7f4552433732313a207472616e736665722066726f6d20696e636f72726563742060008201527f6f776e6572000000000000000000000000000000000000000000000000000000602082015250565b7f4552433732313a20746f6b656e20616c7265616479206d696e74656400000000600082015250565b7f4552433732313a207472616e7366657220746f20746865207a65726f2061646460008201527f7265737300000000000000000000000000000000000000000000000000000000602082015250565b7f4552433732313a20617070726f766520746f2063616c6c657200000000000000600082015250565b7f4552433732313a206f70657261746f7220717565727920666f72206e6f6e657860008201527f697374656e7420746f6b656e0000000000000000000000000000000000000000602082015250565b7f4552433732313a20617070726f76652063616c6c6572206973206e6f74206f7760008201527f6e6572206e6f7220617070726f76656420666f7220616c6c0000000000000000602082015250565b7f4552433732313a2062616c616e636520717565727920666f7220746865207a6560008201527f726f206164647265737300000000000000000000000000000000000000000000602082015250565b7f4552433732313a206f776e657220717565727920666f72206e6f6e657869737460008201527f656e7420746f6b656e0000000000000000000000000000000000000000000000602082015250565b7f45524337323155524953746f726167653a2055524920736574206f66206e6f6e60008201527f6578697374656e7420746f6b656e000000000000000000000000000000000000602082015250565b7f4552433732313a206d696e7420746f20746865207a65726f2061646472657373600082015250565b7f45524337323155524953746f726167653a2055524920717565727920666f722060008201527f6e6f6e6578697374656e7420746f6b656e000000000000000000000000000000602082015250565b7f4552433732313a20617070726f76656420717565727920666f72206e6f6e657860008201527f697374656e7420746f6b656e0000000000000000000000000000000000000000602082015250565b7f4f6e6c79206f776e65722063616e206c69737420686973207469636b6574206660008201527f6f722073616c6500000000000000000000000000000000000000000000000000602082015250565b7f5469636b657473206f7665720000000000000000000000000000000000000000600082015250565b7f4552433732314d657461646174613a2055524920717565727920666f72206e6f60008201527f6e6578697374656e7420746f6b656e0000000000000000000000000000000000602082015250565b7f4552433732313a20617070726f76616c20746f2063757272656e74206f776e6560008201527f7200000000000000000000000000000000000000000000000000000000000000602082015250565b7f4552433732313a207472616e736665722063616c6c6572206973206e6f74206f60008201527f776e6572206e6f7220617070726f766564000000000000000000000000000000602082015250565b7f50617920746865207072696365207468617420686173206265656e2061736b6560008201527f6400000000000000000000000000000000000000000000000000000000000000602082015250565b6146fe81613ed5565b811461470957600080fd5b50565b61471581613ef9565b811461472057600080fd5b50565b61472c81613f05565b811461473757600080fd5b50565b61474381613f5b565b811461474e57600080fd5b5056fea2646970667358221220420972e78038e30b0787a9e9fa91a3bfd5ee0ddb95fd9762d6cb143ee414facc64736f6c63430008040033",
  "linkReferences": {},
  "deployedLinkReferences": {}
}