{
  "_format": "hh-sol-artifact-1",
  "contractName": "Concert1",
  "sourceName": "contracts/TicketMarket.sol",
  "abi": [
    {
      "inputs": [],
      "stateMutability": "nonpayable",
      "type": "constructor"
    },
    {
      "anonymous": false,
      "inputs": [
        {
          "indexed": true,
          "internalType": "address",
          "name": "owner",
          "type": "address"
        },
        {
          "indexed": true,
          "internalType": "address",
          "name": "approved",
          "type": "address"
        },
        {
          "indexed": true,
          "internalType": "uint256",
          "name": "tokenId",
          "type": "uint256"
        }
      ],
      "name": "Approval",
      "type": "event"
    },
    {
      "anonymous": false,
      "inputs": [
        {
          "indexed": true,
          "internalType": "address",
          "name": "owner",
          "type": "address"
        },
        {
          "indexed": true,
          "internalType": "address",
          "name": "operator",
          "type": "address"
        },
        {
          "indexed": false,
          "internalType": "bool",
          "name": "approved",
          "type": "bool"
        }
      ],
      "name": "ApprovalForAll",
      "type": "event"
    },
    {
      "anonymous": false,
      "inputs": [
        {
          "indexed": true,
          "internalType": "address",
          "name": "from",
          "type": "address"
        },
        {
          "indexed": true,
          "internalType": "address",
          "name": "to",
          "type": "address"
        },
        {
          "indexed": true,
          "internalType": "uint256",
          "name": "tokenId",
          "type": "uint256"
        }
      ],
      "name": "Transfer",
      "type": "event"
    },
    {
      "anonymous": false,
      "inputs": [
        {
          "indexed": true,
          "internalType": "uint256",
          "name": "tokenId",
          "type": "uint256"
        },
        {
          "indexed": false,
          "internalType": "address",
          "name": "original_owner",
          "type": "address"
        },
        {
          "indexed": false,
          "internalType": "uint256",
          "name": "perc_cut",
          "type": "uint256"
        },
        {
          "indexed": false,
          "internalType": "address",
          "name": "seller",
          "type": "address"
        },
        {
          "indexed": false,
          "internalType": "address",
          "name": "owner",
          "type": "address"
        },
        {
          "indexed": false,
          "internalType": "uint256",
          "name": "prev_price",
          "type": "uint256"
        },
        {
          "indexed": false,
          "internalType": "uint256",
          "name": "price",
          "type": "uint256"
        },
        {
          "indexed": false,
          "internalType": "bool",
          "name": "sold",
          "type": "bool"
        }
      ],
      "name": "ticketCreated",
      "type": "event"
    },
    {
      "inputs": [
        {
          "internalType": "address",
          "name": "to",
          "type": "address"
        },
        {
          "internalType": "uint256",
          "name": "tokenId",
          "type": "uint256"
        }
      ],
      "name": "approve",
      "outputs": [],
      "stateMutability": "nonpayable",
      "type": "function"
    },
    {
      "inputs": [
        {
          "internalType": "address",
          "name": "owner",
          "type": "address"
        }
      ],
      "name": "balanceOf",
      "outputs": [
        {
          "internalType": "uint256",
          "name": "",
          "type": "uint256"
        }
      ],
      "stateMutability": "view",
      "type": "function"
    },
    {
      "inputs": [
        {
          "internalType": "uint256",
          "name": "tokenID",
          "type": "uint256"
        }
      ],
      "name": "cancelListing",
      "outputs": [],
      "stateMutability": "nonpayable",
      "type": "function"
    },
    {
      "inputs": [
        {
          "internalType": "string",
          "name": "tokenURI",
          "type": "string"
        },
        {
          "internalType": "uint256",
          "name": "artist_cut",
          "type": "uint256"
        },
        {
          "internalType": "uint256",
          "name": "price",
          "type": "uint256"
        }
      ],
      "name": "createToken",
      "outputs": [
        {
          "internalType": "uint256",
          "name": "",
          "type": "uint256"
        }
      ],
      "stateMutability": "nonpayable",
      "type": "function"
    },
    {
      "inputs": [
        {
          "internalType": "uint256",
          "name": "tokenId",
          "type": "uint256"
        }
      ],
      "name": "getApproved",
      "outputs": [
        {
          "internalType": "address",
          "name": "",
          "type": "address"
        }
      ],
      "stateMutability": "view",
      "type": "function"
    },
    {
      "inputs": [],
      "name": "getAvailableTickets",
      "outputs": [
        {
          "components": [
            {
              "internalType": "uint256",
              "name": "tokenID",
              "type": "uint256"
            },
            {
              "internalType": "address payable",
              "name": "original_owner",
              "type": "address"
            },
            {
              "internalType": "uint256",
              "name": "perc_cut",
              "type": "uint256"
            },
            {
              "internalType": "address payable",
              "name": "seller",
              "type": "address"
            },
            {
              "internalType": "address payable",
              "name": "owner",
              "type": "address"
            },
            {
              "internalType": "uint256",
              "name": "prev_price",
              "type": "uint256"
            },
            {
              "internalType": "uint256",
              "name": "price",
              "type": "uint256"
            },
            {
              "internalType": "bool",
              "name": "sold",
              "type": "bool"
            }
          ],
          "internalType": "struct Concert1.ticketData[]",
          "name": "",
          "type": "tuple[]"
        }
      ],
      "stateMutability": "view",
      "type": "function"
    },
    {
      "inputs": [],
      "name": "getListedTickets",
      "outputs": [
        {
          "components": [
            {
              "internalType": "uint256",
              "name": "tokenID",
              "type": "uint256"
            },
            {
              "internalType": "address payable",
              "name": "original_owner",
              "type": "address"
            },
            {
              "internalType": "uint256",
              "name": "perc_cut",
              "type": "uint256"
            },
            {
              "internalType": "address payable",
              "name": "seller",
              "type": "address"
            },
            {
              "internalType": "address payable",
              "name": "owner",
              "type": "address"
            },
            {
              "internalType": "uint256",
              "name": "prev_price",
              "type": "uint256"
            },
            {
              "internalType": "uint256",
              "name": "price",
              "type": "uint256"
            },
            {
              "internalType": "bool",
              "name": "sold",
              "type": "bool"
            }
          ],
          "internalType": "struct Concert1.ticketData[]",
          "name": "",
          "type": "tuple[]"
        }
      ],
      "stateMutability": "view",
      "type": "function"
    },
    {
      "inputs": [],
      "name": "getMyTickets",
      "outputs": [
        {
          "components": [
            {
              "internalType": "uint256",
              "name": "tokenID",
              "type": "uint256"
            },
            {
              "internalType": "address payable",
              "name": "original_owner",
              "type": "address"
            },
            {
              "internalType": "uint256",
              "name": "perc_cut",
              "type": "uint256"
            },
            {
              "internalType": "address payable",
              "name": "seller",
              "type": "address"
            },
            {
              "internalType": "address payable",
              "name": "owner",
              "type": "address"
            },
            {
              "internalType": "uint256",
              "name": "prev_price",
              "type": "uint256"
            },
            {
              "internalType": "uint256",
              "name": "price",
              "type": "uint256"
            },
            {
              "internalType": "bool",
              "name": "sold",
              "type": "bool"
            }
          ],
          "internalType": "struct Concert1.ticketData[]",
          "name": "",
          "type": "tuple[]"
        }
      ],
      "stateMutability": "view",
      "type": "function"
    },
    {
      "inputs": [
        {
          "internalType": "address",
          "name": "owner",
          "type": "address"
        },
        {
          "internalType": "address",
          "name": "operator",
          "type": "address"
        }
      ],
      "name": "isApprovedForAll",
      "outputs": [
        {
          "internalType": "bool",
          "name": "",
          "type": "bool"
        }
      ],
      "stateMutability": "view",
      "type": "function"
    },
    {
      "inputs": [
        {
          "internalType": "uint256",
          "name": "tokenID",
          "type": "uint256"
        },
        {
          "internalType": "uint256",
          "name": "price",
          "type": "uint256"
        }
      ],
      "name": "listTicketForSale",
      "outputs": [],
      "stateMutability": "nonpayable",
      "type": "function"
    },
    {
      "inputs": [
        {
          "internalType": "uint256",
          "name": "tokenID",
          "type": "uint256"
        }
      ],
      "name": "makeSale",
      "outputs": [],
      "stateMutability": "payable",
      "type": "function"
    },
    {
      "inputs": [],
      "name": "name",
      "outputs": [
        {
          "internalType": "string",
          "name": "",
          "type": "string"
        }
      ],
      "stateMutability": "view",
      "type": "function"
    },
    {
      "inputs": [
        {
          "internalType": "uint256",
          "name": "tokenId",
          "type": "uint256"
        }
      ],
      "name": "ownerOf",
      "outputs": [
        {
          "internalType": "address",
          "name": "",
          "type": "address"
        }
      ],
      "stateMutability": "view",
      "type": "function"
    },
    {
      "inputs": [
        {
          "internalType": "address",
          "name": "from",
          "type": "address"
        },
        {
          "internalType": "address",
          "name": "to",
          "type": "address"
        },
        {
          "internalType": "uint256",
          "name": "tokenId",
          "type": "uint256"
        }
      ],
      "name": "safeTransferFrom",
      "outputs": [],
      "stateMutability": "nonpayable",
      "type": "function"
    },
    {
      "inputs": [
        {
          "internalType": "address",
          "name": "from",
          "type": "address"
        },
        {
          "internalType": "address",
          "name": "to",
          "type": "address"
        },
        {
          "internalType": "uint256",
          "name": "tokenId",
          "type": "uint256"
        },
        {
          "internalType": "bytes",
          "name": "_data",
          "type": "bytes"
        }
      ],
      "name": "safeTransferFrom",
      "outputs": [],
      "stateMutability": "nonpayable",
      "type": "function"
    },
    {
      "inputs": [
        {
          "internalType": "address",
          "name": "operator",
          "type": "address"
        },
        {
          "internalType": "bool",
          "name": "approved",
          "type": "bool"
        }
      ],
      "name": "setApprovalForAll",
      "outputs": [],
      "stateMutability": "nonpayable",
      "type": "function"
    },
    {
      "inputs": [
        {
          "internalType": "bytes4",
          "name": "interfaceId",
          "type": "bytes4"
        }
      ],
      "name": "supportsInterface",
      "outputs": [
        {
          "internalType": "bool",
          "name": "",
          "type": "bool"
        }
      ],
      "stateMutability": "view",
      "type": "function"
    },
    {
      "inputs": [],
      "name": "symbol",
      "outputs": [
        {
          "internalType": "string",
          "name": "",
          "type": "string"
        }
      ],
      "stateMutability": "view",
      "type": "function"
    },
    {
      "inputs": [
        {
          "internalType": "uint256",
          "name": "tokenId",
          "type": "uint256"
        }
      ],
      "name": "tokenURI",
      "outputs": [
        {
          "internalType": "string",
          "name": "",
          "type": "string"
        }
      ],
      "stateMutability": "view",
      "type": "function"
    },
    {
      "inputs": [
        {
          "internalType": "address",
          "name": "from",
          "type": "address"
        },
        {
          "internalType": "address",
          "name": "to",
          "type": "address"
        },
        {
          "internalType": "uint256",
          "name": "tokenId",
          "type": "uint256"
        }
      ],
      "name": "transferFrom",
      "outputs": [],
      "stateMutability": "nonpayable",
      "type": "function"
    }
  ],
  "bytecode": "0x6080604052661e32b478974000600a55612710600b553480156200002257600080fd5b506040518060400160405280601081526020017f4d657461766572736520546f6b656e73000000000000000000000000000000008152506040518060400160405280600481526020017f4d455454000000000000000000000000000000000000000000000000000000008152508160009080519060200190620000a79291906200010a565b508060019080519060200190620000c09291906200010a565b50505033600760006101000a81548173ffffffffffffffffffffffffffffffffffffffff021916908373ffffffffffffffffffffffffffffffffffffffff1602179055506200021f565b8280546200011890620001ba565b90600052602060002090601f0160209004810192826200013c576000855562000188565b82601f106200015757805160ff191683800117855562000188565b8280016001018555821562000188579182015b82811115620001875782518255916020019190600101906200016a565b5b5090506200019791906200019b565b5090565b5b80821115620001b65760008160009055506001016200019c565b5090565b60006002820490506001821680620001d357607f821691505b60208210811415620001ea57620001e9620001f0565b5b50919050565b7f4e487b7100000000000000000000000000000000000000000000000000000000600052602260045260246000fd5b6147d2806200022f6000396000f3fe60806040526004361061011f5760003560e01c80636352211e116100a0578063bec2a7c511610064578063bec2a7c5146103d6578063c87b56dd14610413578063d524d32d14610450578063e1d10d8514610479578063e985e9c5146104a45761011f565b80636352211e146102df57806370a082311461031c57806395d89b4114610359578063a22cb46514610384578063b88d4fde146103ad5761011f565b8063305a67a8116100e7578063305a67a81461021b578063364083f41461024457806342842e0e14610260578063443c6942146102895780635a8acacc146102b45761011f565b806301ffc9a71461012457806306fdde0314610161578063081812fc1461018c578063095ea7b3146101c957806323b872dd146101f2575b600080fd5b34801561013057600080fd5b5061014b600480360381019061014691906132c0565b6104e1565b6040516101589190613a12565b60405180910390f35b34801561016d57600080fd5b506101766105c3565b6040516101839190613a2d565b60405180910390f35b34801561019857600080fd5b506101b360048036038101906101ae9190613379565b610655565b6040516101c0919061391a565b60405180910390f35b3480156101d557600080fd5b506101f060048036038101906101eb9190613284565b6106da565b005b3480156101fe57600080fd5b506102196004803603810190610214919061317e565b6107f2565b005b34801561022757600080fd5b50610242600480360381019061023d9190613379565b610852565b005b61025e60048036038101906102599190613379565b6109e8565b005b34801561026c57600080fd5b506102876004803603810190610282919061317e565b610d1f565b005b34801561029557600080fd5b5061029e610d3f565b6040516102ab91906139f0565b60405180910390f35b3480156102c057600080fd5b506102c96110dd565b6040516102d691906139f0565b60405180910390f35b3480156102eb57600080fd5b5061030660048036038101906103019190613379565b6113e3565b604051610313919061391a565b60405180910390f35b34801561032857600080fd5b50610343600480360381019061033e9190613119565b611495565b6040516103509190613d0f565b60405180910390f35b34801561036557600080fd5b5061036e61154d565b60405161037b9190613a2d565b60405180910390f35b34801561039057600080fd5b506103ab60048036038101906103a69190613248565b6115df565b005b3480156103b957600080fd5b506103d460048036038101906103cf91906131cd565b6115f5565b005b3480156103e257600080fd5b506103fd60048036038101906103f89190613312565b611657565b60405161040a9190613d0f565b60405180910390f35b34801561041f57600080fd5b5061043a60048036038101906104359190613379565b6116f3565b6040516104479190613a2d565b60405180910390f35b34801561045c57600080fd5b50610477600480360381019061047291906133a2565b611845565b005b34801561048557600080fd5b5061048e6119f6565b60405161049b91906139f0565b60405180910390f35b3480156104b057600080fd5b506104cb60048036038101906104c69190613142565b611d94565b6040516104d89190613a12565b60405180910390f35b60007f80ac58cd000000000000000000000000000000000000000000000000000000007bffffffffffffffffffffffffffffffffffffffffffffffffffffffff1916827bffffffffffffffffffffffffffffffffffffffffffffffffffffffff191614806105ac57507f5b5e139f000000000000000000000000000000000000000000000000000000007bffffffffffffffffffffffffffffffffffffffffffffffffffffffff1916827bffffffffffffffffffffffffffffffffffffffffffffffffffffffff1916145b806105bc57506105bb82611e28565b5b9050919050565b6060600080546105d290613fb0565b80601f01602080910402602001604051908101604052809291908181526020018280546105fe90613fb0565b801561064b5780601f106106205761010080835404028352916020019161064b565b820191906000526020600020905b81548152906001019060200180831161062e57829003601f168201915b5050505050905090565b600061066082611e92565b61069f576040517f08c379a000000000000000000000000000000000000000000000000000000000815260040161069690613c2f565b60405180910390fd5b6004600083815260200190815260200160002060009054906101000a900473ffffffffffffffffffffffffffffffffffffffff169050919050565b60006106e5826113e3565b90508073ffffffffffffffffffffffffffffffffffffffff168373ffffffffffffffffffffffffffffffffffffffff161415610756576040517f08c379a000000000000000000000000000000000000000000000000000000000815260040161074d90613caf565b60405180910390fd5b8073ffffffffffffffffffffffffffffffffffffffff16610775611efe565b73ffffffffffffffffffffffffffffffffffffffff1614806107a457506107a38161079e611efe565b611d94565b5b6107e3576040517f08c379a00000000000000000000000000000000000000000000000000000000081526004016107da90613b4f565b60405180910390fd5b6107ed8383611f06565b505050565b6108036107fd611efe565b82611fbf565b610842576040517f08c379a000000000000000000000000000000000000000000000000000000000815260040161083990613ccf565b60405180910390fd5b61084d83838361209d565b505050565b600c600082815260200190815260200160002060030160009054906101000a900473ffffffffffffffffffffffffffffffffffffffff1673ffffffffffffffffffffffffffffffffffffffff163373ffffffffffffffffffffffffffffffffffffffff16146108f6576040517f08c379a00000000000000000000000000000000000000000000000000000000081526004016108ed90613c0f565b60405180910390fd5b6001600c600083815260200190815260200160002060070160006101000a81548160ff0219169083151502179055506000600c600083815260200190815260200160002060030160006101000a81548173ffffffffffffffffffffffffffffffffffffffff021916908373ffffffffffffffffffffffffffffffffffffffff16021790555033600c600083815260200190815260200160002060040160006101000a81548173ffffffffffffffffffffffffffffffffffffffff021916908373ffffffffffffffffffffffffffffffffffffffff1602179055506109da6009612304565b6109e530338361209d565b50565b6000600c60008381526020019081526020016000206006015490506000600c600084815260200190815260200160002060030160009054906101000a900473ffffffffffffffffffffffffffffffffffffffff169050813414610a80576040517f08c379a0000000000000000000000000000000000000000000000000000000008152600401610a7790613cef565b60405180910390fd5b6001600c600085815260200190815260200160002060070160006101000a81548160ff0219169083151502179055506000600c600085815260200190815260200160002060030160006101000a81548173ffffffffffffffffffffffffffffffffffffffff021916908373ffffffffffffffffffffffffffffffffffffffff16021790555033600c600085815260200190815260200160002060040160006101000a81548173ffffffffffffffffffffffffffffffffffffffff021916908373ffffffffffffffffffffffffffffffffffffffff160217905550610b646009612304565b610b6f30338561209d565b6000600c60008581526020019081526020016000206005015483610b939190613eb4565b9050600c600085815260200190815260200160002060050154831115610cb6576000610bbe82612360565b905060008185610bce9190613eb4565b9050600c600087815260200190815260200160002060010160009054906101000a900473ffffffffffffffffffffffffffffffffffffffff1673ffffffffffffffffffffffffffffffffffffffff166108fc839081150290604051600060405180830381858888f19350505050158015610c4c573d6000803e3d6000fd5b508373ffffffffffffffffffffffffffffffffffffffff166108fc829081150290604051600060405180830381858888f19350505050158015610c93573d6000803e3d6000fd5b5084600c6000888152602001908152602001600020600501819055505050610d19565b82600c6000868152602001908152602001600020600501819055508173ffffffffffffffffffffffffffffffffffffffff166108fc849081150290604051600060405180830381858888f19350505050158015610d17573d6000803e3d6000fd5b505b50505050565b610d3a838383604051806020016040528060008152506115f5565b505050565b60606000610d4d6008612400565b90506000805b82811015610df4573373ffffffffffffffffffffffffffffffffffffffff16600c6000600184610d839190613e2d565b815260200190815260200160002060030160009054906101000a900473ffffffffffffffffffffffffffffffffffffffff1673ffffffffffffffffffffffffffffffffffffffff161415610de157600182610dde9190613e2d565b91505b8080610dec90614013565b915050610d53565b5060008167ffffffffffffffff811115610e37577f4e487b7100000000000000000000000000000000000000000000000000000000600052604160045260246000fd5b604051908082528060200260200182016040528015610e7057816020015b610e5d612eb4565b815260200190600190039081610e555790505b5090506000805b848110156110d2573373ffffffffffffffffffffffffffffffffffffffff16600c6000600184610ea79190613e2d565b815260200190815260200160002060030160009054906101000a900473ffffffffffffffffffffffffffffffffffffffff1673ffffffffffffffffffffffffffffffffffffffff1614156110bf576000600c6000600184610f089190613e2d565b815260200190815260200160002090508060405180610100016040529081600082015481526020016001820160009054906101000a900473ffffffffffffffffffffffffffffffffffffffff1673ffffffffffffffffffffffffffffffffffffffff1673ffffffffffffffffffffffffffffffffffffffff168152602001600282015481526020016003820160009054906101000a900473ffffffffffffffffffffffffffffffffffffffff1673ffffffffffffffffffffffffffffffffffffffff1673ffffffffffffffffffffffffffffffffffffffff1681526020016004820160009054906101000a900473ffffffffffffffffffffffffffffffffffffffff1673ffffffffffffffffffffffffffffffffffffffff1673ffffffffffffffffffffffffffffffffffffffff16815260200160058201548152602001600682015481526020016007820160009054906101000a900460ff1615151515815250508484815181106110a3577f4e487b7100000000000000000000000000000000000000000000000000000000600052603260045260246000fd5b60200260200101819052506001836110bb9190613e2d565b9250505b80806110ca90614013565b915050610e77565b508194505050505090565b606060006110eb6008612400565b905060006110f96009612400565b905060008167ffffffffffffffff81111561113d577f4e487b7100000000000000000000000000000000000000000000000000000000600052604160045260246000fd5b60405190808252806020026020018201604052801561117657816020015b611163612eb4565b81526020019060019003908161115b5790505b5090506000805b848110156113d8573073ffffffffffffffffffffffffffffffffffffffff16600c60006001846111ad9190613e2d565b815260200190815260200160002060040160009054906101000a900473ffffffffffffffffffffffffffffffffffffffff1673ffffffffffffffffffffffffffffffffffffffff1614156113c5576000600c600060018461120e9190613e2d565b815260200190815260200160002090508060405180610100016040529081600082015481526020016001820160009054906101000a900473ffffffffffffffffffffffffffffffffffffffff1673ffffffffffffffffffffffffffffffffffffffff1673ffffffffffffffffffffffffffffffffffffffff168152602001600282015481526020016003820160009054906101000a900473ffffffffffffffffffffffffffffffffffffffff1673ffffffffffffffffffffffffffffffffffffffff1673ffffffffffffffffffffffffffffffffffffffff1681526020016004820160009054906101000a900473ffffffffffffffffffffffffffffffffffffffff1673ffffffffffffffffffffffffffffffffffffffff1673ffffffffffffffffffffffffffffffffffffffff16815260200160058201548152602001600682015481526020016007820160009054906101000a900460ff1615151515815250508484815181106113a9577f4e487b7100000000000000000000000000000000000000000000000000000000600052603260045260246000fd5b60200260200101819052506001836113c19190613e2d565b9250505b80806113d090614013565b91505061117d565b508194505050505090565b6000806002600084815260200190815260200160002060009054906101000a900473ffffffffffffffffffffffffffffffffffffffff169050600073ffffffffffffffffffffffffffffffffffffffff168173ffffffffffffffffffffffffffffffffffffffff16141561148c576040517f08c379a000000000000000000000000000000000000000000000000000000000815260040161148390613b8f565b60405180910390fd5b80915050919050565b60008073ffffffffffffffffffffffffffffffffffffffff168273ffffffffffffffffffffffffffffffffffffffff161415611506576040517f08c379a00000000000000000000000000000000000000000000000000000000081526004016114fd90613b6f565b60405180910390fd5b600360008373ffffffffffffffffffffffffffffffffffffffff1673ffffffffffffffffffffffffffffffffffffffff168152602001908152602001600020549050919050565b60606001805461155c90613fb0565b80601f016020809104026020016040519081016040528092919081815260200182805461158890613fb0565b80156115d55780601f106115aa576101008083540402835291602001916115d5565b820191906000526020600020905b8154815290600101906020018083116115b857829003601f168201915b5050505050905090565b6115f16115ea611efe565b838361240e565b5050565b611606611600611efe565b83611fbf565b611645576040517f08c379a000000000000000000000000000000000000000000000000000000000815260040161163c90613ccf565b60405180910390fd5b6116518484848461257b565b50505050565b6000600b546116666008612400565b11156116a7576040517f08c379a000000000000000000000000000000000000000000000000000000000815260040161169e90613c6f565b60405180910390fd5b6116b160086125d7565b60006116bd6008612400565b90506116c933826125ed565b6116d381866127c7565b6116de81848661283b565b6116e860096125d7565b809150509392505050565b60606116fe82611e92565b61173d576040517f08c379a000000000000000000000000000000000000000000000000000000000815260040161173490613bef565b60405180910390fd5b600060066000848152602001908152602001600020805461175d90613fb0565b80601f016020809104026020016040519081016040528092919081815260200182805461178990613fb0565b80156117d65780601f106117ab576101008083540402835291602001916117d6565b820191906000526020600020905b8154815290600101906020018083116117b957829003601f168201915b5050505050905060006117e7612a85565b90506000815114156117fd578192505050611840565b60008251111561183257808260405160200161181a9291906138f6565b60405160208183030381529060405292505050611840565b61183b84612a9c565b925050505b919050565b3373ffffffffffffffffffffffffffffffffffffffff16600c600084815260200190815260200160002060040160009054906101000a900473ffffffffffffffffffffffffffffffffffffffff1673ffffffffffffffffffffffffffffffffffffffff16146118e9576040517f08c379a00000000000000000000000000000000000000000000000000000000081526004016118e090613c4f565b60405180910390fd5b6000600c600084815260200190815260200160002060070160006101000a81548160ff02191690831515021790555080600c60008481526020019081526020016000206006018190555030600c600084815260200190815260200160002060040160006101000a81548173ffffffffffffffffffffffffffffffffffffffff021916908373ffffffffffffffffffffffffffffffffffffffff16021790555033600c600084815260200190815260200160002060030160006101000a81548173ffffffffffffffffffffffffffffffffffffffff021916908373ffffffffffffffffffffffffffffffffffffffff1602179055506119e760096125d7565b6119f233308461209d565b5050565b60606000611a046008612400565b90506000805b82811015611aab573373ffffffffffffffffffffffffffffffffffffffff16600c6000600184611a3a9190613e2d565b815260200190815260200160002060040160009054906101000a900473ffffffffffffffffffffffffffffffffffffffff1673ffffffffffffffffffffffffffffffffffffffff161415611a9857600182611a959190613e2d565b91505b8080611aa390614013565b915050611a0a565b5060008167ffffffffffffffff811115611aee577f4e487b7100000000000000000000000000000000000000000000000000000000600052604160045260246000fd5b604051908082528060200260200182016040528015611b2757816020015b611b14612eb4565b815260200190600190039081611b0c5790505b5090506000805b84811015611d89573373ffffffffffffffffffffffffffffffffffffffff16600c6000600184611b5e9190613e2d565b815260200190815260200160002060040160009054906101000a900473ffffffffffffffffffffffffffffffffffffffff1673ffffffffffffffffffffffffffffffffffffffff161415611d76576000600c6000600184611bbf9190613e2d565b815260200190815260200160002090508060405180610100016040529081600082015481526020016001820160009054906101000a900473ffffffffffffffffffffffffffffffffffffffff1673ffffffffffffffffffffffffffffffffffffffff1673ffffffffffffffffffffffffffffffffffffffff168152602001600282015481526020016003820160009054906101000a900473ffffffffffffffffffffffffffffffffffffffff1673ffffffffffffffffffffffffffffffffffffffff1673ffffffffffffffffffffffffffffffffffffffff1681526020016004820160009054906101000a900473ffffffffffffffffffffffffffffffffffffffff1673ffffffffffffffffffffffffffffffffffffffff1673ffffffffffffffffffffffffffffffffffffffff16815260200160058201548152602001600682015481526020016007820160009054906101000a900460ff161515151581525050848481518110611d5a577f4e487b7100000000000000000000000000000000000000000000000000000000600052603260045260246000fd5b6020026020010181905250600183611d729190613e2d565b9250505b8080611d8190614013565b915050611b2e565b508194505050505090565b6000600560008473ffffffffffffffffffffffffffffffffffffffff1673ffffffffffffffffffffffffffffffffffffffff16815260200190815260200160002060008373ffffffffffffffffffffffffffffffffffffffff1673ffffffffffffffffffffffffffffffffffffffff16815260200190815260200160002060009054906101000a900460ff16905092915050565b60007f01ffc9a7000000000000000000000000000000000000000000000000000000007bffffffffffffffffffffffffffffffffffffffffffffffffffffffff1916827bffffffffffffffffffffffffffffffffffffffffffffffffffffffff1916149050919050565b60008073ffffffffffffffffffffffffffffffffffffffff166002600084815260200190815260200160002060009054906101000a900473ffffffffffffffffffffffffffffffffffffffff1673ffffffffffffffffffffffffffffffffffffffff1614159050919050565b600033905090565b816004600083815260200190815260200160002060006101000a81548173ffffffffffffffffffffffffffffffffffffffff021916908373ffffffffffffffffffffffffffffffffffffffff160217905550808273ffffffffffffffffffffffffffffffffffffffff16611f79836113e3565b73ffffffffffffffffffffffffffffffffffffffff167f8c5be1e5ebec7d5bd14f71427d1e84f3dd0314c0f7b2291e5b200ac8c7c3b92560405160405180910390a45050565b6000611fca82611e92565b612009576040517f08c379a000000000000000000000000000000000000000000000000000000000815260040161200090613b2f565b60405180910390fd5b6000612014836113e3565b90508073ffffffffffffffffffffffffffffffffffffffff168473ffffffffffffffffffffffffffffffffffffffff16148061208357508373ffffffffffffffffffffffffffffffffffffffff1661206b84610655565b73ffffffffffffffffffffffffffffffffffffffff16145b8061209457506120938185611d94565b5b91505092915050565b8273ffffffffffffffffffffffffffffffffffffffff166120bd826113e3565b73ffffffffffffffffffffffffffffffffffffffff1614612113576040517f08c379a000000000000000000000000000000000000000000000000000000000815260040161210a90613aaf565b60405180910390fd5b600073ffffffffffffffffffffffffffffffffffffffff168273ffffffffffffffffffffffffffffffffffffffff161415612183576040517f08c379a000000000000000000000000000000000000000000000000000000000815260040161217a90613aef565b60405180910390fd5b61218e838383612b43565b612199600082611f06565b6001600360008573ffffffffffffffffffffffffffffffffffffffff1673ffffffffffffffffffffffffffffffffffffffff16815260200190815260200160002060008282546121e99190613eb4565b925050819055506001600360008473ffffffffffffffffffffffffffffffffffffffff1673ffffffffffffffffffffffffffffffffffffffff16815260200190815260200160002060008282546122409190613e2d565b92505081905550816002600083815260200190815260200160002060006101000a81548173ffffffffffffffffffffffffffffffffffffffff021916908373ffffffffffffffffffffffffffffffffffffffff160217905550808273ffffffffffffffffffffffffffffffffffffffff168473ffffffffffffffffffffffffffffffffffffffff167fddf252ad1be2c89b69c2b068fc378daa952ba7f163c4a11628f55a4df523b3ef60405160405180910390a46122ff838383612b48565b505050565b60008160000154905060008111612350576040517f08c379a000000000000000000000000000000000000000000000000000000000815260040161234790613a6f565b60405180910390fd5b6001810382600001819055505050565b60006703782dace9d9000082101561237b57600090506123fb565b6703782dace9d90000821015801561239a5750670de0b6b3a764000082105b156123af5767016345785d8a000090506123fa565b670de0b6b3a7640000821180156123cd5750674563918244f4000082105b156123e2576706f05b59d3b2000090506123f9565b6706f05b59d3b20000826123f69190613eb4565b90505b5b5b919050565b600081600001549050919050565b8173ffffffffffffffffffffffffffffffffffffffff168373ffffffffffffffffffffffffffffffffffffffff16141561247d576040517f08c379a000000000000000000000000000000000000000000000000000000000815260040161247490613b0f565b60405180910390fd5b80600560008573ffffffffffffffffffffffffffffffffffffffff1673ffffffffffffffffffffffffffffffffffffffff16815260200190815260200160002060008473ffffffffffffffffffffffffffffffffffffffff1673ffffffffffffffffffffffffffffffffffffffff16815260200190815260200160002060006101000a81548160ff0219169083151502179055508173ffffffffffffffffffffffffffffffffffffffff168373ffffffffffffffffffffffffffffffffffffffff167f17307eab39ab6107e8899845ad3d59bd9653f200f220920489ca2b5937696c318360405161256e9190613a12565b60405180910390a3505050565b61258684848461209d565b61259284848484612b4d565b6125d1576040517f08c379a00000000000000000000000000000000000000000000000000000000081526004016125c890613a8f565b60405180910390fd5b50505050565b6001816000016000828254019250508190555050565b600073ffffffffffffffffffffffffffffffffffffffff168273ffffffffffffffffffffffffffffffffffffffff16141561265d576040517f08c379a000000000000000000000000000000000000000000000000000000000815260040161265490613bcf565b60405180910390fd5b61266681611e92565b156126a6576040517f08c379a000000000000000000000000000000000000000000000000000000000815260040161269d90613acf565b60405180910390fd5b6126b260008383612b43565b6001600360008473ffffffffffffffffffffffffffffffffffffffff1673ffffffffffffffffffffffffffffffffffffffff16815260200190815260200160002060008282546127029190613e2d565b92505081905550816002600083815260200190815260200160002060006101000a81548173ffffffffffffffffffffffffffffffffffffffff021916908373ffffffffffffffffffffffffffffffffffffffff160217905550808273ffffffffffffffffffffffffffffffffffffffff16600073ffffffffffffffffffffffffffffffffffffffff167fddf252ad1be2c89b69c2b068fc378daa952ba7f163c4a11628f55a4df523b3ef60405160405180910390a46127c360008383612b48565b5050565b6127d082611e92565b61280f576040517f08c379a000000000000000000000000000000000000000000000000000000000815260040161280690613baf565b60405180910390fd5b80600660008481526020019081526020016000209080519060200190612836929190612f3d565b505050565b6000821161287e576040517f08c379a000000000000000000000000000000000000000000000000000000000815260040161287590613a4f565b60405180910390fd5b6040518061010001604052808481526020013373ffffffffffffffffffffffffffffffffffffffff1681526020018281526020013373ffffffffffffffffffffffffffffffffffffffff1681526020013073ffffffffffffffffffffffffffffffffffffffff16815260200183815260200183815260200160001515815250600c60008581526020019081526020016000206000820151816000015560208201518160010160006101000a81548173ffffffffffffffffffffffffffffffffffffffff021916908373ffffffffffffffffffffffffffffffffffffffff1602179055506040820151816002015560608201518160030160006101000a81548173ffffffffffffffffffffffffffffffffffffffff021916908373ffffffffffffffffffffffffffffffffffffffff16021790555060808201518160040160006101000a81548173ffffffffffffffffffffffffffffffffffffffff021916908373ffffffffffffffffffffffffffffffffffffffff16021790555060a0820151816005015560c0820151816006015560e08201518160070160006101000a81548160ff021916908315150217905550905050612a3b33308561209d565b827f9bb2edb04dea5922baa2f5a427b910a5c471c16cede6b8118bd4170d0b3071e63383333387886000604051612a789796959493929190613981565b60405180910390a2505050565b606060405180602001604052806000815250905090565b6060612aa782611e92565b612ae6576040517f08c379a0000000000000000000000000000000000000000000000000000000008152600401612add90613c8f565b60405180910390fd5b6000612af0612a85565b90506000815111612b105760405180602001604052806000815250612b3b565b80612b1a84612ce4565b604051602001612b2b9291906138f6565b6040516020818303038152906040525b915050919050565b505050565b505050565b6000612b6e8473ffffffffffffffffffffffffffffffffffffffff16612e91565b15612cd7578373ffffffffffffffffffffffffffffffffffffffff1663150b7a02612b97611efe565b8786866040518563ffffffff1660e01b8152600401612bb99493929190613935565b602060405180830381600087803b158015612bd357600080fd5b505af1925050508015612c0457506040513d601f19601f82011682018060405250810190612c0191906132e9565b60015b612c87573d8060008114612c34576040519150601f19603f3d011682016040523d82523d6000602084013e612c39565b606091505b50600081511415612c7f576040517f08c379a0000000000000000000000000000000000000000000000000000000008152600401612c7690613a8f565b60405180910390fd5b805181602001fd5b63150b7a0260e01b7bffffffffffffffffffffffffffffffffffffffffffffffffffffffff1916817bffffffffffffffffffffffffffffffffffffffffffffffffffffffff191614915050612cdc565b600190505b949350505050565b60606000821415612d2c576040518060400160405280600181526020017f30000000000000000000000000000000000000000000000000000000000000008152509050612e8c565b600082905060005b60008214612d5e578080612d4790614013565b915050600a82612d579190613e83565b9150612d34565b60008167ffffffffffffffff811115612da0577f4e487b7100000000000000000000000000000000000000000000000000000000600052604160045260246000fd5b6040519080825280601f01601f191660200182016040528015612dd25781602001600182028036833780820191505090505b5090505b60008514612e8557600182612deb9190613eb4565b9150600a85612dfa919061405c565b6030612e069190613e2d565b60f81b818381518110612e42577f4e487b7100000000000000000000000000000000000000000000000000000000600052603260045260246000fd5b60200101907effffffffffffffffffffffffffffffffffffffffffffffffffffffffffffff1916908160001a905350600a85612e7e9190613e83565b9450612dd6565b8093505050505b919050565b6000808273ffffffffffffffffffffffffffffffffffffffff163b119050919050565b60405180610100016040528060008152602001600073ffffffffffffffffffffffffffffffffffffffff16815260200160008152602001600073ffffffffffffffffffffffffffffffffffffffff168152602001600073ffffffffffffffffffffffffffffffffffffffff16815260200160008152602001600081526020016000151581525090565b828054612f4990613fb0565b90600052602060002090601f016020900481019282612f6b5760008555612fb2565b82601f10612f8457805160ff1916838001178555612fb2565b82800160010185558215612fb2579182015b82811115612fb1578251825591602001919060010190612f96565b5b509050612fbf9190612fc3565b5090565b5b80821115612fdc576000816000905550600101612fc4565b5090565b6000612ff3612fee84613d4f565b613d2a565b90508281526020810184848401111561300b57600080fd5b613016848285613f6e565b509392505050565b600061303161302c84613d80565b613d2a565b90508281526020810184848401111561304957600080fd5b613054848285613f6e565b509392505050565b60008135905061306b81614740565b92915050565b60008135905061308081614757565b92915050565b6000813590506130958161476e565b92915050565b6000815190506130aa8161476e565b92915050565b600082601f8301126130c157600080fd5b81356130d1848260208601612fe0565b91505092915050565b600082601f8301126130eb57600080fd5b81356130fb84826020860161301e565b91505092915050565b60008135905061311381614785565b92915050565b60006020828403121561312b57600080fd5b60006131398482850161305c565b91505092915050565b6000806040838503121561315557600080fd5b60006131638582860161305c565b92505060206131748582860161305c565b9150509250929050565b60008060006060848603121561319357600080fd5b60006131a18682870161305c565b93505060206131b28682870161305c565b92505060406131c386828701613104565b9150509250925092565b600080600080608085870312156131e357600080fd5b60006131f18782880161305c565b94505060206132028782880161305c565b935050604061321387828801613104565b925050606085013567ffffffffffffffff81111561323057600080fd5b61323c878288016130b0565b91505092959194509250565b6000806040838503121561325b57600080fd5b60006132698582860161305c565b925050602061327a85828601613071565b9150509250929050565b6000806040838503121561329757600080fd5b60006132a58582860161305c565b92505060206132b685828601613104565b9150509250929050565b6000602082840312156132d257600080fd5b60006132e084828501613086565b91505092915050565b6000602082840312156132fb57600080fd5b60006133098482850161309b565b91505092915050565b60008060006060848603121561332757600080fd5b600084013567ffffffffffffffff81111561334157600080fd5b61334d868287016130da565b935050602061335e86828701613104565b925050604061336f86828701613104565b9150509250925092565b60006020828403121561338b57600080fd5b600061339984828501613104565b91505092915050565b600080604083850312156133b557600080fd5b60006133c385828601613104565b92505060206133d485828601613104565b9150509250929050565b60006133ea8383613836565b6101008301905092915050565b61340081613efa565b82525050565b61340f81613ee8565b82525050565b600061342082613dc1565b61342a8185613def565b935061343583613db1565b8060005b8381101561346657815161344d88826133de565b975061345883613de2565b925050600181019050613439565b5085935050505092915050565b61347c81613f0c565b82525050565b61348b81613f0c565b82525050565b600061349c82613dcc565b6134a68185613e00565b93506134b6818560208601613f7d565b6134bf81614149565b840191505092915050565b60006134d582613dd7565b6134df8185613e11565b93506134ef818560208601613f7d565b6134f881614149565b840191505092915050565b600061350e82613dd7565b6135188185613e22565b9350613528818560208601613f7d565b80840191505092915050565b6000613541601b83613e11565b915061354c8261415a565b602082019050919050565b6000613564601b83613e11565b915061356f82614183565b602082019050919050565b6000613587603283613e11565b9150613592826141ac565b604082019050919050565b60006135aa602583613e11565b91506135b5826141fb565b604082019050919050565b60006135cd601c83613e11565b91506135d88261424a565b602082019050919050565b60006135f0602483613e11565b91506135fb82614273565b604082019050919050565b6000613613601983613e11565b915061361e826142c2565b602082019050919050565b6000613636602c83613e11565b9150613641826142eb565b604082019050919050565b6000613659603883613e11565b91506136648261433a565b604082019050919050565b600061367c602a83613e11565b915061368782614389565b604082019050919050565b600061369f602983613e11565b91506136aa826143d8565b604082019050919050565b60006136c2602e83613e11565b91506136cd82614427565b604082019050919050565b60006136e5602083613e11565b91506136f082614476565b602082019050919050565b6000613708603183613e11565b91506137138261449f565b604082019050919050565b600061372b602583613e11565b9150613736826144ee565b604082019050919050565b600061374e602c83613e11565b91506137598261453d565b604082019050919050565b6000613771602783613e11565b915061377c8261458c565b604082019050919050565b6000613794600c83613e11565b915061379f826145db565b602082019050919050565b60006137b7602f83613e11565b91506137c282614604565b604082019050919050565b60006137da602183613e11565b91506137e582614653565b604082019050919050565b60006137fd603183613e11565b9150613808826146a2565b604082019050919050565b6000613820602183613e11565b915061382b826146f1565b604082019050919050565b6101008201600082015161384d60008501826138d8565b50602082015161386060208501826133f7565b50604082015161387360408501826138d8565b50606082015161388660608501826133f7565b50608082015161389960808501826133f7565b5060a08201516138ac60a08501826138d8565b5060c08201516138bf60c08501826138d8565b5060e08201516138d260e0850182613473565b50505050565b6138e181613f64565b82525050565b6138f081613f64565b82525050565b60006139028285613503565b915061390e8284613503565b91508190509392505050565b600060208201905061392f6000830184613406565b92915050565b600060808201905061394a6000830187613406565b6139576020830186613406565b61396460408301856138e7565b81810360608301526139768184613491565b905095945050505050565b600060e082019050613996600083018a613406565b6139a360208301896138e7565b6139b06040830188613406565b6139bd6060830187613406565b6139ca60808301866138e7565b6139d760a08301856138e7565b6139e460c0830184613482565b98975050505050505050565b60006020820190508181036000830152613a0a8184613415565b905092915050565b6000602082019050613a276000830184613482565b92915050565b60006020820190508181036000830152613a4781846134ca565b905092915050565b60006020820190508181036000830152613a6881613534565b9050919050565b60006020820190508181036000830152613a8881613557565b9050919050565b60006020820190508181036000830152613aa88161357a565b9050919050565b60006020820190508181036000830152613ac88161359d565b9050919050565b60006020820190508181036000830152613ae8816135c0565b9050919050565b60006020820190508181036000830152613b08816135e3565b9050919050565b60006020820190508181036000830152613b2881613606565b9050919050565b60006020820190508181036000830152613b4881613629565b9050919050565b60006020820190508181036000830152613b688161364c565b9050919050565b60006020820190508181036000830152613b888161366f565b9050919050565b60006020820190508181036000830152613ba881613692565b9050919050565b60006020820190508181036000830152613bc8816136b5565b9050919050565b60006020820190508181036000830152613be8816136d8565b9050919050565b60006020820190508181036000830152613c08816136fb565b9050919050565b60006020820190508181036000830152613c288161371e565b9050919050565b60006020820190508181036000830152613c4881613741565b9050919050565b60006020820190508181036000830152613c6881613764565b9050919050565b60006020820190508181036000830152613c8881613787565b9050919050565b60006020820190508181036000830152613ca8816137aa565b9050919050565b60006020820190508181036000830152613cc8816137cd565b9050919050565b60006020820190508181036000830152613ce8816137f0565b9050919050565b60006020820190508181036000830152613d0881613813565b9050919050565b6000602082019050613d2460008301846138e7565b92915050565b6000613d34613d45565b9050613d408282613fe2565b919050565b6000604051905090565b600067ffffffffffffffff821115613d6a57613d6961411a565b5b613d7382614149565b9050602081019050919050565b600067ffffffffffffffff821115613d9b57613d9a61411a565b5b613da482614149565b9050602081019050919050565b6000819050602082019050919050565b600081519050919050565b600081519050919050565b600081519050919050565b6000602082019050919050565b600082825260208201905092915050565b600082825260208201905092915050565b600082825260208201905092915050565b600081905092915050565b6000613e3882613f64565b9150613e4383613f64565b9250827fffffffffffffffffffffffffffffffffffffffffffffffffffffffffffffffff03821115613e7857613e7761408d565b5b828201905092915050565b6000613e8e82613f64565b9150613e9983613f64565b925082613ea957613ea86140bc565b5b828204905092915050565b6000613ebf82613f64565b9150613eca83613f64565b925082821015613edd57613edc61408d565b5b828203905092915050565b6000613ef382613f44565b9050919050565b6000613f0582613f44565b9050919050565b60008115159050919050565b60007fffffffff0000000000000000000000000000000000000000000000000000000082169050919050565b600073ffffffffffffffffffffffffffffffffffffffff82169050919050565b6000819050919050565b82818337600083830152505050565b60005b83811015613f9b578082015181840152602081019050613f80565b83811115613faa576000848401525b50505050565b60006002820490506001821680613fc857607f821691505b60208210811415613fdc57613fdb6140eb565b5b50919050565b613feb82614149565b810181811067ffffffffffffffff8211171561400a5761400961411a565b5b80604052505050565b600061401e82613f64565b91507fffffffffffffffffffffffffffffffffffffffffffffffffffffffffffffffff8214156140515761405061408d565b5b600182019050919050565b600061406782613f64565b915061407283613f64565b925082614082576140816140bc565b5b828206905092915050565b7f4e487b7100000000000000000000000000000000000000000000000000000000600052601160045260246000fd5b7f4e487b7100000000000000000000000000000000000000000000000000000000600052601260045260246000fd5b7f4e487b7100000000000000000000000000000000000000000000000000000000600052602260045260246000fd5b7f4e487b7100000000000000000000000000000000000000000000000000000000600052604160045260246000fd5b6000601f19601f8301169050919050565b7f5072696365206d7573742062652061746c656173742031207765690000000000600082015250565b7f436f756e7465723a2064656372656d656e74206f766572666c6f770000000000600082015250565b7f4552433732313a207472616e7366657220746f206e6f6e20455243373231526560008201527f63656976657220696d706c656d656e7465720000000000000000000000000000602082015250565b7f4552433732313a207472616e736665722066726f6d20696e636f72726563742060008201527f6f776e6572000000000000000000000000000000000000000000000000000000602082015250565b7f4552433732313a20746f6b656e20616c7265616479206d696e74656400000000600082015250565b7f4552433732313a207472616e7366657220746f20746865207a65726f2061646460008201527f7265737300000000000000000000000000000000000000000000000000000000602082015250565b7f4552433732313a20617070726f766520746f2063616c6c657200000000000000600082015250565b7f4552433732313a206f70657261746f7220717565727920666f72206e6f6e657860008201527f697374656e7420746f6b656e0000000000000000000000000000000000000000602082015250565b7f4552433732313a20617070726f76652063616c6c6572206973206e6f74206f7760008201527f6e6572206e6f7220617070726f76656420666f7220616c6c0000000000000000602082015250565b7f4552433732313a2062616c616e636520717565727920666f7220746865207a6560008201527f726f206164647265737300000000000000000000000000000000000000000000602082015250565b7f4552433732313a206f776e657220717565727920666f72206e6f6e657869737460008201527f656e7420746f6b656e0000000000000000000000000000000000000000000000602082015250565b7f45524337323155524953746f726167653a2055524920736574206f66206e6f6e60008201527f6578697374656e7420746f6b656e000000000000000000000000000000000000602082015250565b7f4552433732313a206d696e7420746f20746865207a65726f2061646472657373600082015250565b7f45524337323155524953746f726167653a2055524920717565727920666f722060008201527f6e6f6e6578697374656e7420746f6b656e000000000000000000000000000000602082015250565b7f4f6e6c79207468652073656c6c65722063616e2064652d6c697374207468652060008201527f696d616765000000000000000000000000000000000000000000000000000000602082015250565b7f4552433732313a20617070726f76656420717565727920666f72206e6f6e657860008201527f697374656e7420746f6b656e0000000000000000000000000000000000000000602082015250565b7f4f6e6c79206f776e65722063616e206c69737420686973207469636b6574206660008201527f6f722073616c6500000000000000000000000000000000000000000000000000602082015250565b7f5469636b657473206f7665720000000000000000000000000000000000000000600082015250565b7f4552433732314d657461646174613a2055524920717565727920666f72206e6f60008201527f6e6578697374656e7420746f6b656e0000000000000000000000000000000000602082015250565b7f4552433732313a20617070726f76616c20746f2063757272656e74206f776e6560008201527f7200000000000000000000000000000000000000000000000000000000000000602082015250565b7f4552433732313a207472616e736665722063616c6c6572206973206e6f74206f60008201527f776e6572206e6f7220617070726f766564000000000000000000000000000000602082015250565b7f50617920746865207072696365207468617420686173206265656e2061736b6560008201527f6400000000000000000000000000000000000000000000000000000000000000602082015250565b61474981613ee8565b811461475457600080fd5b50565b61476081613f0c565b811461476b57600080fd5b50565b61477781613f18565b811461478257600080fd5b50565b61478e81613f64565b811461479957600080fd5b5056fea2646970667358221220815c5b6755f0bd9d23ebad10c3df6e9cb981b7ef25f6d106ff3a3e51c28f0c2564736f6c63430008040033",
  "linkReferences": {},
  "deployedLinkReferences": {}
}